{
  "contractName": "Dex",
  "abi": [
    {
      "inputs": [
        {
          "internalType": "contract TestTokenDex",
          "name": "_testTokenDex",
          "type": "address"
        }
      ],
      "stateMutability": "nonpayable",
      "type": "constructor"
    },
    {
      "inputs": [],
      "name": "buyRate",
      "outputs": [
        {
          "internalType": "uint16",
          "name": "",
          "type": "uint16"
        }
      ],
      "stateMutability": "view",
      "type": "function",
      "constant": true
    },
    {
      "inputs": [],
      "name": "name",
      "outputs": [
        {
          "internalType": "string",
          "name": "",
          "type": "string"
        }
      ],
      "stateMutability": "view",
      "type": "function",
      "constant": true
    },
    {
      "inputs": [],
      "name": "numOfBuys",
      "outputs": [
        {
          "internalType": "uint256",
          "name": "",
          "type": "uint256"
        }
      ],
      "stateMutability": "view",
      "type": "function",
      "constant": true
    },
    {
      "inputs": [],
      "name": "numOfSells",
      "outputs": [
        {
          "internalType": "uint256",
          "name": "",
          "type": "uint256"
        }
      ],
      "stateMutability": "view",
      "type": "function",
      "constant": true
    },
    {
      "inputs": [],
      "name": "sellRate",
      "outputs": [
        {
          "internalType": "uint16",
          "name": "",
          "type": "uint16"
        }
      ],
      "stateMutability": "view",
      "type": "function",
      "constant": true
    },
    {
      "inputs": [],
      "name": "testTokenDex",
      "outputs": [
        {
          "internalType": "contract TestTokenDex",
          "name": "",
          "type": "address"
        }
      ],
      "stateMutability": "view",
      "type": "function",
      "constant": true
    },
    {
      "inputs": [],
      "name": "buyTTD",
      "outputs": [],
      "stateMutability": "payable",
      "type": "function",
      "payable": true
    },
    {
      "inputs": [
        {
          "internalType": "uint256",
          "name": "amount",
          "type": "uint256"
        }
      ],
      "name": "sellTTD",
      "outputs": [],
      "stateMutability": "nonpayable",
      "type": "function"
    },
    {
      "inputs": [],
      "name": "getUserTestTokenDexBalance",
      "outputs": [
        {
          "internalType": "uint256",
          "name": "",
          "type": "uint256"
        }
      ],
      "stateMutability": "view",
      "type": "function",
      "constant": true
    },
    {
      "inputs": [],
      "name": "getTestTokenDexContractAddress",
      "outputs": [
        {
          "internalType": "address",
          "name": "",
          "type": "address"
        }
      ],
      "stateMutability": "view",
      "type": "function",
      "constant": true
    },
    {
      "inputs": [],
      "name": "getMaximumExchangeSizeForBuy",
      "outputs": [
        {
          "internalType": "uint256",
          "name": "",
          "type": "uint256"
        }
      ],
      "stateMutability": "view",
      "type": "function",
      "constant": true
    },
    {
      "inputs": [],
      "name": "getMaximumExchangeSizeForSell",
      "outputs": [
        {
          "internalType": "uint256",
          "name": "",
          "type": "uint256"
        }
      ],
      "stateMutability": "view",
      "type": "function",
      "constant": true
    }
  ],
  "bytecode": "0x60806040526040518060400160405280600381526020017f4465780000000000000000000000000000000000000000000000000000000000815250600090816200004a9190620003c4565b50612710600460006101000a81548161ffff021916908361ffff160217905550611388600460026101000a81548161ffff021916908361ffff16021790555060646005553480156200009b57600080fd5b50604051620017c8380380620017c88339818101604052810190620000c1919062000529565b80600660006101000a81548173ffffffffffffffffffffffffffffffffffffffff021916908373ffffffffffffffffffffffffffffffffffffffff16021790555033600160006101000a81548173ffffffffffffffffffffffffffffffffffffffff021916908373ffffffffffffffffffffffffffffffffffffffff160217905550506200055b565b600081519050919050565b7f4e487b7100000000000000000000000000000000000000000000000000000000600052604160045260246000fd5b7f4e487b7100000000000000000000000000000000000000000000000000000000600052602260045260246000fd5b60006002820490506001821680620001cc57607f821691505b602082108103620001e257620001e162000184565b5b50919050565b60008190508160005260206000209050919050565b60006020601f8301049050919050565b600082821b905092915050565b6000600883026200024c7fffffffffffffffffffffffffffffffffffffffffffffffffffffffffffffffff826200020d565b6200025886836200020d565b95508019841693508086168417925050509392505050565b6000819050919050565b6000819050919050565b6000620002a56200029f620002998462000270565b6200027a565b62000270565b9050919050565b6000819050919050565b620002c18362000284565b620002d9620002d082620002ac565b8484546200021a565b825550505050565b600090565b620002f0620002e1565b620002fd818484620002b6565b505050565b5b81811015620003255762000319600082620002e6565b60018101905062000303565b5050565b601f82111562000374576200033e81620001e8565b6200034984620001fd565b8101602085101562000359578190505b620003716200036885620001fd565b83018262000302565b50505b505050565b600082821c905092915050565b6000620003996000198460080262000379565b1980831691505092915050565b6000620003b4838362000386565b9150826002028217905092915050565b620003cf826200014a565b67ffffffffffffffff811115620003eb57620003ea62000155565b5b620003f78254620001b3565b6200040482828562000329565b600060209050601f8311600181146200043c576000841562000427578287015190505b620004338582620003a6565b865550620004a3565b601f1984166200044c86620001e8565b60005b8281101562000476578489015182556001820191506020850194506020810190506200044f565b8683101562000496578489015162000492601f89168262000386565b8355505b6001600288020188555050505b505050505050565b600080fd5b600073ffffffffffffffffffffffffffffffffffffffff82169050919050565b6000620004dd82620004b0565b9050919050565b6000620004f182620004d0565b9050919050565b6200050381620004e4565b81146200050f57600080fd5b50565b6000815190506200052381620004f8565b92915050565b600060208284031215620005425762000541620004ab565b5b6000620005528482850162000512565b91505092915050565b61125d806200056b6000396000f3fe6080604052600436106100a75760003560e01c80636217229b116100645780636217229b1461018d578063771e4dff146101b857806380d8e67b146101e3578063ad7062611461020e578063ca172ee114610237578063fc37987b14610262576100a7565b806306fdde03146100ac5780631686000d146100d75780632e9ff1fe146101025780633a968ed81461010c578063443a98ff146101375780635ab860d314610162575b600080fd5b3480156100b857600080fd5b506100c161028d565b6040516100ce9190610b45565b60405180910390f35b3480156100e357600080fd5b506100ec61031b565b6040516100f99190610b80565b60405180910390f35b61010a6103be565b005b34801561011857600080fd5b506101216106b9565b60405161012e9190610b80565b60405180910390f35b34801561014357600080fd5b5061014c61075c565b6040516101599190610bdc565b60405180910390f35b34801561016e57600080fd5b50610177610786565b6040516101849190610b80565b60405180910390f35b34801561019957600080fd5b506101a261078e565b6040516101af9190610c14565b60405180910390f35b3480156101c457600080fd5b506101cd6107a2565b6040516101da9190610c8e565b60405180910390f35b3480156101ef57600080fd5b506101f86107c8565b6040516102059190610b80565b60405180910390f35b34801561021a57600080fd5b5061023560048036038101906102309190610cda565b6107ce565b005b34801561024357600080fd5b5061024c610a92565b6040516102599190610b80565b60405180910390f35b34801561026e57600080fd5b50610277610a98565b6040516102849190610c14565b60405180910390f35b6000805461029a90610d36565b80601f01602080910402602001604051908101604052809291908181526020018280546102c690610d36565b80156103135780601f106102e857610100808354040283529160200191610313565b820191906000526020600020905b8154815290600101906020018083116102f657829003601f168201915b505050505081565b6000600660009054906101000a900473ffffffffffffffffffffffffffffffffffffffff1673ffffffffffffffffffffffffffffffffffffffff166370a08231306040518263ffffffff1660e01b81526004016103789190610bdc565b602060405180830381865afa158015610395573d6000803e3d6000fd5b505050506040513d601f19601f820116820180604052508101906103b99190610d7c565b905090565b600034905060008111610406576040517f08c379a00000000000000000000000000000000000000000000000000000000081526004016103fd90610df5565b60405180910390fd5b6000600460009054906101000a900461ffff1661ffff166005548361042b9190610e44565b6104359190610ecd565b90506000600660009054906101000a900473ffffffffffffffffffffffffffffffffffffffff1673ffffffffffffffffffffffffffffffffffffffff166370a08231306040518263ffffffff1660e01b81526004016104949190610bdc565b602060405180830381865afa1580156104b1573d6000803e3d6000fd5b505050506040513d601f19601f820116820180604052508101906104d59190610d7c565b90508082111561051a576040517f08c379a000000000000000000000000000000000000000000000000000000000815260040161051190610f70565b60405180910390fd5b600660009054906101000a900473ffffffffffffffffffffffffffffffffffffffff1673ffffffffffffffffffffffffffffffffffffffff1663a9059cbb33846040518363ffffffff1660e01b8152600401610577929190610f90565b6020604051808303816000875af1158015610596573d6000803e3d6000fd5b505050506040513d601f19601f820116820180604052508101906105ba9190610ff1565b5060006002846105ca9190610ecd565b90506000600160009054906101000a900473ffffffffffffffffffffffffffffffffffffffff1673ffffffffffffffffffffffffffffffffffffffff16826040516106149061104f565b60006040518083038185875af1925050503d8060008114610651576040519150601f19603f3d011682016040523d82523d6000602084013e610656565b606091505b505090508061069a576040517f08c379a0000000000000000000000000000000000000000000000000000000008152600401610691906110b0565b60405180910390fd5b600260008154809291906106ad906110d0565b91905055505050505050565b6000600660009054906101000a900473ffffffffffffffffffffffffffffffffffffffff1673ffffffffffffffffffffffffffffffffffffffff166370a08231336040518263ffffffff1660e01b81526004016107169190610bdc565b602060405180830381865afa158015610733573d6000803e3d6000fd5b505050506040513d601f19601f820116820180604052508101906107579190610d7c565b905090565b6000600660009054906101000a900473ffffffffffffffffffffffffffffffffffffffff16905090565b600047905090565b600460029054906101000a900461ffff1681565b600660009054906101000a900473ffffffffffffffffffffffffffffffffffffffff1681565b60025481565b60008111610811576040517f08c379a000000000000000000000000000000000000000000000000000000000815260040161080890611164565b60405180910390fd5b6000600660009054906101000a900473ffffffffffffffffffffffffffffffffffffffff1673ffffffffffffffffffffffffffffffffffffffff166370a08231336040518263ffffffff1660e01b815260040161086e9190610bdc565b602060405180830381865afa15801561088b573d6000803e3d6000fd5b505050506040513d601f19601f820116820180604052508101906108af9190610d7c565b9050808211156108f4576040517f08c379a00000000000000000000000000000000000000000000000000000000081526004016108eb906111d0565b60405180910390fd5b600660009054906101000a900473ffffffffffffffffffffffffffffffffffffffff1673ffffffffffffffffffffffffffffffffffffffff166323b872dd3330856040518463ffffffff1660e01b8152600401610953939291906111f0565b6020604051808303816000875af1158015610972573d6000803e3d6000fd5b505050506040513d601f19601f820116820180604052508101906109969190610ff1565b50600060055483600460029054906101000a900461ffff1661ffff166109bc9190610e44565b6109c69190610ecd565b905060003373ffffffffffffffffffffffffffffffffffffffff16826040516109ee9061104f565b60006040518083038185875af1925050503d8060008114610a2b576040519150601f19603f3d011682016040523d82523d6000602084013e610a30565b606091505b5050905080610a74576040517f08c379a0000000000000000000000000000000000000000000000000000000008152600401610a6b906110b0565b60405180910390fd5b60036000815480929190610a87906110d0565b919050555050505050565b60035481565b600460009054906101000a900461ffff1681565b600081519050919050565b600082825260208201905092915050565b60005b83811015610ae6578082015181840152602081019050610acb565b83811115610af5576000848401525b50505050565b6000601f19601f8301169050919050565b6000610b1782610aac565b610b218185610ab7565b9350610b31818560208601610ac8565b610b3a81610afb565b840191505092915050565b60006020820190508181036000830152610b5f8184610b0c565b905092915050565b6000819050919050565b610b7a81610b67565b82525050565b6000602082019050610b956000830184610b71565b92915050565b600073ffffffffffffffffffffffffffffffffffffffff82169050919050565b6000610bc682610b9b565b9050919050565b610bd681610bbb565b82525050565b6000602082019050610bf16000830184610bcd565b92915050565b600061ffff82169050919050565b610c0e81610bf7565b82525050565b6000602082019050610c296000830184610c05565b92915050565b6000819050919050565b6000610c54610c4f610c4a84610b9b565b610c2f565b610b9b565b9050919050565b6000610c6682610c39565b9050919050565b6000610c7882610c5b565b9050919050565b610c8881610c6d565b82525050565b6000602082019050610ca36000830184610c7f565b92915050565b600080fd5b610cb781610b67565b8114610cc257600080fd5b50565b600081359050610cd481610cae565b92915050565b600060208284031215610cf057610cef610ca9565b5b6000610cfe84828501610cc5565b91505092915050565b7f4e487b7100000000000000000000000000000000000000000000000000000000600052602260045260246000fd5b60006002820490506001821680610d4e57607f821691505b602082108103610d6157610d60610d07565b5b50919050565b600081519050610d7681610cae565b92915050565b600060208284031215610d9257610d91610ca9565b5b6000610da084828501610d67565b91505092915050565b7f596f75206861766520746f2073656e6420736f6d652065746865720000000000600082015250565b6000610ddf601b83610ab7565b9150610dea82610da9565b602082019050919050565b60006020820190508181036000830152610e0e81610dd2565b9050919050565b7f4e487b7100000000000000000000000000000000000000000000000000000000600052601160045260246000fd5b6000610e4f82610b67565b9150610e5a83610b67565b9250817fffffffffffffffffffffffffffffffffffffffffffffffffffffffffffffffff0483118215151615610e9357610e92610e15565b5b828202905092915050565b7f4e487b7100000000000000000000000000000000000000000000000000000000600052601260045260246000fd5b6000610ed882610b67565b9150610ee383610b67565b925082610ef357610ef2610e9e565b5b828204905092915050565b7f4e6f7420656e6f7567682054657374546f6b656e44657820696e20737570706c60008201527f7900000000000000000000000000000000000000000000000000000000000000602082015250565b6000610f5a602183610ab7565b9150610f6582610efe565b604082019050919050565b60006020820190508181036000830152610f8981610f4d565b9050919050565b6000604082019050610fa56000830185610bcd565b610fb26020830184610b71565b9392505050565b60008115159050919050565b610fce81610fb9565b8114610fd957600080fd5b50565b600081519050610feb81610fc5565b92915050565b60006020828403121561100757611006610ca9565b5b600061101584828501610fdc565b91505092915050565b600081905092915050565b50565b600061103960008361101e565b915061104482611029565b600082019050919050565b600061105a8261102c565b9150819050919050565b7f4661696c656420746f2073656e642077656920746f2074686520757365720000600082015250565b600061109a601e83610ab7565b91506110a582611064565b602082019050919050565b600060208201905081810360008301526110c98161108d565b9050919050565b60006110db82610b67565b91507fffffffffffffffffffffffffffffffffffffffffffffffffffffffffffffffff820361110d5761110c610e15565b5b600182019050919050565b7f616d6f756e74206d7573742062652067726561746572207468616e207a65726f600082015250565b600061114e602083610ab7565b915061115982611118565b602082019050919050565b6000602082019050818103600083015261117d81611141565b9050919050565b7f496e73756666696369656e742046756e64730000000000000000000000000000600082015250565b60006111ba601283610ab7565b91506111c582611184565b602082019050919050565b600060208201905081810360008301526111e9816111ad565b9050919050565b60006060820190506112056000830186610bcd565b6112126020830185610bcd565b61121f6040830184610b71565b94935050505056fea2646970667358221220a077699180a04d77b500ed7f86248dd71a93e1720c152f9ba8d8d32ac5f4827d64736f6c634300080f0033",
  "immutableReferences": {},
  "source": "// SPDX-License-Identifier: MIT\r\npragma solidity ^0.8.0;\r\nimport './TestTokenDex.sol';\r\n\r\ncontract Dex {\r\n    string public name = 'Dex';\r\n    address private owner;\r\n    uint public numOfBuys;\r\n    uint public numOfSells;\r\n    //1TTD = 10000wei for buy order\r\n    //1TTD with a decimal of 2 = 1 * 10 ^ 2 which is 100TTDbits;\r\n    //100TTDbits = 10000 wei for buy order\r\n    uint16 public buyRate = 10000;\r\n    //1TTD = 5000 for sell\r\n    //1TTD with a decimal of 2 = 1 * 10 ^ 2 which is 100TTDbits;\r\n    //100TTDbits = 5000 wei for sell order\r\n    uint16 public sellRate = 5000;\r\n    // testTokenDexBits = 100 because 1TDD = 1 * 10 ^ 2. with 2 being the decimals\r\n    //1TDD = 100testTokenDexBits\r\n    uint testTokenDexBits = 100;\r\n    \r\n\r\n\r\n    TestTokenDex public testTokenDex;\r\n\r\n    constructor(TestTokenDex _testTokenDex) {\r\n        testTokenDex = _testTokenDex;\r\n        owner = msg.sender;\r\n    }\r\n\r\n\r\n    function buyTTD() public payable{\r\n        //this is the amount of TTD tokens the user wants to buy in wei\r\n        uint amountToBuyInWei = msg.value;\r\n        //check if the user sent some wei\r\n        require(amountToBuyInWei > 0, \"You have to send some ether\");\r\n        //convert amountToBuyInWei to TTDbits which is the smallest denomination of TTD since it has a decimal of 2\r\n        uint amountToBuyInTTDBits = (amountToBuyInWei * testTokenDexBits) / buyRate;\r\n        //get balance of dex TTD tokens\r\n        uint testTokenDexBalance = testTokenDex.balanceOf(address(this));\r\n        //check if balance of dex is enough for how much TTD tokens the user wants to buy\r\n        require(amountToBuyInTTDBits <= testTokenDexBalance, \"Not enough TestTokenDex in supply\");\r\n        //transfer TTD tokens to the user addres\r\n        testTokenDex.transfer(msg.sender, amountToBuyInTTDBits);\r\n        // transfer half of wei to owner address\r\n        uint amountOfWeiToTransferToOwner = amountToBuyInWei / 2;\r\n        (bool success, ) = owner.call{value: amountOfWeiToTransferToOwner}(\"\");\r\n        require(success, \"Failed to send wei to the user\");\r\n        numOfBuys++;\r\n    }\r\n\r\nfunction sellTTD(uint amount) public{\r\n        require(amount > 0, \"amount must be greater than zero\");\r\n        //get user TTD token balance in bits\r\n        uint userBalance = testTokenDex.balanceOf(msg.sender);\r\n        //check if user has enough TTD tokens in bits to sell\r\n        require(amount <= userBalance, \"Insufficient Funds\");\r\n        //transfer user tokens to dex address\r\n        testTokenDex.transferFrom(msg.sender, address(this), amount);\r\n        //transfer wei to user address\r\n        //Convert amount from bits to TDD remembering the 2 decimals\r\n        uint amountInWeiToTransferToUser = (sellRate * amount) / testTokenDexBits;\r\n        (bool success, ) = msg.sender.call{value: amountInWeiToTransferToUser}(\"\");\r\n        require(success, \"Failed to send wei to the user\");\r\n        numOfSells++;\r\n    } \r\n\r\n    function getUserTestTokenDexBalance() public view returns(uint256) {\r\n        return testTokenDex.balanceOf(msg.sender);\r\n    }\r\n\r\n    function getTestTokenDexContractAddress() public view returns(address){\r\n        return address(testTokenDex);\r\n    }\r\n\r\n    function getMaximumExchangeSizeForBuy() public view returns(uint256){\r\n        return testTokenDex.balanceOf(address(this));\r\n    }\r\n\r\n    function getMaximumExchangeSizeForSell() public view returns(uint256){\r\n        return address(this).balance;\r\n    }\r\n\r\n    \r\n    \r\n\r\n\r\n}",
  "sourcePath": "C:\\Users\\user\\Documents\\Blockchain-projects\\zumo-dex\\contracts\\Dex.sol",
  "compiler": {
    "name": "solc",
    "version": "0.8.15+commit.e14f2714.Emscripten.clang"
  },
  "schemaVersion": "3.4.8",
  "updatedAt": "2022-10-09T12:16:31.901Z",
  "networkType": "ethereum",
  "devdoc": {
    "kind": "dev",
    "methods": {},
    "version": 1
  },
  "userdoc": {
    "kind": "user",
    "methods": {},
    "version": 1
  }
}